{
  "_format": "hh-sol-artifact-1",
  "contractName": "Presale",
  "sourceName": "contracts/PreSale.sol",
  "abi": [
    {
      "inputs": [],
      "stateMutability": "nonpayable",
      "type": "constructor"
    },
    {
      "anonymous": false,
      "inputs": [
        {
          "indexed": true,
          "internalType": "address",
          "name": "owner",
          "type": "address"
        },
        {
          "indexed": true,
          "internalType": "address",
          "name": "approved",
          "type": "address"
        },
        {
          "indexed": true,
          "internalType": "uint256",
          "name": "tokenId",
          "type": "uint256"
        }
      ],
      "name": "Approval",
      "type": "event"
    },
    {
      "anonymous": false,
      "inputs": [
        {
          "indexed": true,
          "internalType": "address",
          "name": "owner",
          "type": "address"
        },
        {
          "indexed": true,
          "internalType": "address",
          "name": "operator",
          "type": "address"
        },
        {
          "indexed": false,
          "internalType": "bool",
          "name": "approved",
          "type": "bool"
        }
      ],
      "name": "ApprovalForAll",
      "type": "event"
    },
    {
      "anonymous": false,
      "inputs": [
        {
          "indexed": false,
          "internalType": "uint256",
          "name": "tokenId",
          "type": "uint256"
        }
      ],
      "name": "PreSaleMinted",
      "type": "event"
    },
    {
      "anonymous": false,
      "inputs": [
        {
          "indexed": false,
          "internalType": "uint256",
          "name": "tokenId",
          "type": "uint256"
        },
        {
          "indexed": false,
          "internalType": "address",
          "name": "buyer",
          "type": "address"
        },
        {
          "indexed": false,
          "internalType": "uint256",
          "name": "price",
          "type": "uint256"
        },
        {
          "indexed": false,
          "internalType": "uint256",
          "name": "amount",
          "type": "uint256"
        }
      ],
      "name": "SharesBought",
      "type": "event"
    },
    {
      "anonymous": false,
      "inputs": [
        {
          "indexed": true,
          "internalType": "address",
          "name": "from",
          "type": "address"
        },
        {
          "indexed": true,
          "internalType": "address",
          "name": "to",
          "type": "address"
        },
        {
          "indexed": true,
          "internalType": "uint256",
          "name": "tokenId",
          "type": "uint256"
        }
      ],
      "name": "Transfer",
      "type": "event"
    },
    {
      "inputs": [
        {
          "internalType": "address",
          "name": "to",
          "type": "address"
        },
        {
          "internalType": "uint256",
          "name": "tokenId",
          "type": "uint256"
        }
      ],
      "name": "approve",
      "outputs": [],
      "stateMutability": "nonpayable",
      "type": "function"
    },
    {
      "inputs": [
        {
          "internalType": "address",
          "name": "owner",
          "type": "address"
        }
      ],
      "name": "balanceOf",
      "outputs": [
        {
          "internalType": "uint256",
          "name": "",
          "type": "uint256"
        }
      ],
      "stateMutability": "view",
      "type": "function"
    },
    {
      "inputs": [
        {
          "internalType": "uint256",
          "name": "presaleTokenId",
          "type": "uint256"
        },
        {
          "internalType": "uint256",
          "name": "amount",
          "type": "uint256"
        }
      ],
      "name": "buyShares",
      "outputs": [],
      "stateMutability": "nonpayable",
      "type": "function"
    },
    {
      "inputs": [
        {
          "internalType": "uint256",
          "name": "tokenId",
          "type": "uint256"
        }
      ],
      "name": "getApproved",
      "outputs": [
        {
          "internalType": "address",
          "name": "",
          "type": "address"
        }
      ],
      "stateMutability": "view",
      "type": "function"
    },
    {
      "inputs": [
        {
          "internalType": "address",
          "name": "owner",
          "type": "address"
        },
        {
          "internalType": "address",
          "name": "operator",
          "type": "address"
        }
      ],
      "name": "isApprovedForAll",
      "outputs": [
        {
          "internalType": "bool",
          "name": "",
          "type": "bool"
        }
      ],
      "stateMutability": "view",
      "type": "function"
    },
    {
      "inputs": [
        {
          "internalType": "string",
          "name": "metadata",
          "type": "string"
        },
        {
          "internalType": "uint256",
          "name": "totalAmount",
          "type": "uint256"
        },
        {
          "internalType": "uint256",
          "name": "amountOfShares",
          "type": "uint256"
        }
      ],
      "name": "mint",
      "outputs": [],
      "stateMutability": "nonpayable",
      "type": "function"
    },
    {
      "inputs": [],
      "name": "name",
      "outputs": [
        {
          "internalType": "string",
          "name": "",
          "type": "string"
        }
      ],
      "stateMutability": "view",
      "type": "function"
    },
    {
      "inputs": [
        {
          "internalType": "uint256",
          "name": "tokenId",
          "type": "uint256"
        }
      ],
      "name": "ownerOf",
      "outputs": [
        {
          "internalType": "address",
          "name": "",
          "type": "address"
        }
      ],
      "stateMutability": "view",
      "type": "function"
    },
    {
      "inputs": [
        {
          "internalType": "address",
          "name": "from",
          "type": "address"
        },
        {
          "internalType": "address",
          "name": "to",
          "type": "address"
        },
        {
          "internalType": "uint256",
          "name": "tokenId",
          "type": "uint256"
        }
      ],
      "name": "safeTransferFrom",
      "outputs": [],
      "stateMutability": "nonpayable",
      "type": "function"
    },
    {
      "inputs": [
        {
          "internalType": "address",
          "name": "from",
          "type": "address"
        },
        {
          "internalType": "address",
          "name": "to",
          "type": "address"
        },
        {
          "internalType": "uint256",
          "name": "tokenId",
          "type": "uint256"
        },
        {
          "internalType": "bytes",
          "name": "data",
          "type": "bytes"
        }
      ],
      "name": "safeTransferFrom",
      "outputs": [],
      "stateMutability": "nonpayable",
      "type": "function"
    },
    {
      "inputs": [
        {
          "internalType": "address",
          "name": "operator",
          "type": "address"
        },
        {
          "internalType": "bool",
          "name": "approved",
          "type": "bool"
        }
      ],
      "name": "setApprovalForAll",
      "outputs": [],
      "stateMutability": "nonpayable",
      "type": "function"
    },
    {
      "inputs": [
        {
          "internalType": "bytes4",
          "name": "interfaceId",
          "type": "bytes4"
        }
      ],
      "name": "supportsInterface",
      "outputs": [
        {
          "internalType": "bool",
          "name": "",
          "type": "bool"
        }
      ],
      "stateMutability": "view",
      "type": "function"
    },
    {
      "inputs": [],
      "name": "symbol",
      "outputs": [
        {
          "internalType": "string",
          "name": "",
          "type": "string"
        }
      ],
      "stateMutability": "view",
      "type": "function"
    },
    {
      "inputs": [
        {
          "internalType": "uint256",
          "name": "tokenId",
          "type": "uint256"
        }
      ],
      "name": "tokenURI",
      "outputs": [
        {
          "internalType": "string",
          "name": "",
          "type": "string"
        }
      ],
      "stateMutability": "view",
      "type": "function"
    },
    {
      "inputs": [
        {
          "internalType": "address",
          "name": "from",
          "type": "address"
        },
        {
          "internalType": "address",
          "name": "to",
          "type": "address"
        },
        {
          "internalType": "uint256",
          "name": "tokenId",
          "type": "uint256"
        }
      ],
      "name": "transferFrom",
      "outputs": [],
      "stateMutability": "nonpayable",
      "type": "function"
    }
  ],
  "bytecode": "0x60806040523480156200001157600080fd5b506040518060400160405280600781526020017f50726553616c65000000000000000000000000000000000000000000000000008152506040518060400160405280600381526020017f505253000000000000000000000000000000000000000000000000000000000081525081600090816200008f919062000422565b508060019081620000a1919062000422565b50505073d393b1e02da9831ff419e22ea105aae4c47e1253600860006101000a81548173ffffffffffffffffffffffffffffffffffffffff021916908373ffffffffffffffffffffffffffffffffffffffff160217905550600860009054906101000a900473ffffffffffffffffffffffffffffffffffffffff166040516200012a906200019a565b6200013691906200054e565b604051809103906000f08015801562000153573d6000803e3d6000fd5b50600960006101000a81548173ffffffffffffffffffffffffffffffffffffffff021916908373ffffffffffffffffffffffffffffffffffffffff1602179055506200056b565b6109c8806200354183390190565b600081519050919050565b7f4e487b7100000000000000000000000000000000000000000000000000000000600052604160045260246000fd5b7f4e487b7100000000000000000000000000000000000000000000000000000000600052602260045260246000fd5b600060028204905060018216806200022a57607f821691505b60208210810362000240576200023f620001e2565b5b50919050565b60008190508160005260206000209050919050565b60006020601f8301049050919050565b600082821b905092915050565b600060088302620002aa7fffffffffffffffffffffffffffffffffffffffffffffffffffffffffffffffff826200026b565b620002b686836200026b565b95508019841693508086168417925050509392505050565b6000819050919050565b6000819050919050565b600062000303620002fd620002f784620002ce565b620002d8565b620002ce565b9050919050565b6000819050919050565b6200031f83620002e2565b620003376200032e826200030a565b84845462000278565b825550505050565b600090565b6200034e6200033f565b6200035b81848462000314565b505050565b5b8181101562000383576200037760008262000344565b60018101905062000361565b5050565b601f821115620003d2576200039c8162000246565b620003a7846200025b565b81016020851015620003b7578190505b620003cf620003c6856200025b565b83018262000360565b50505b505050565b600082821c905092915050565b6000620003f760001984600802620003d7565b1980831691505092915050565b6000620004128383620003e4565b9150826002028217905092915050565b6200042d82620001a8565b67ffffffffffffffff811115620004495762000448620001b3565b5b62000455825462000211565b6200046282828562000387565b600060209050601f8311600181146200049a576000841562000485578287015190505b62000491858262000404565b86555062000501565b601f198416620004aa8662000246565b60005b82811015620004d457848901518255600182019150602085019450602081019050620004ad565b86831015620004f45784890151620004f0601f891682620003e4565b8355505b6001600288020188555050505b505050505050565b600073ffffffffffffffffffffffffffffffffffffffff82169050919050565b6000620005368262000509565b9050919050565b620005488162000529565b82525050565b60006020820190506200056560008301846200053d565b92915050565b612fc6806200057b6000396000f3fe608060405234801561001057600080fd5b50600436106100f55760003560e01c80636352211e11610097578063b88d4fde11610066578063b88d4fde14610282578063beebc5da1461029e578063c87b56dd146102ba578063e985e9c5146102ea576100f5565b80636352211e146101e857806370a082311461021857806395d89b4114610248578063a22cb46514610266576100f5565b8063095ea7b3116100d3578063095ea7b3146101785780631c635ded1461019457806323b872dd146101b057806342842e0e146101cc576100f5565b806301ffc9a7146100fa57806306fdde031461012a578063081812fc14610148575b600080fd5b610114600480360381019061010f9190611b56565b61031a565b6040516101219190611b9e565b60405180910390f35b6101326103fc565b60405161013f9190611c49565b60405180910390f35b610162600480360381019061015d9190611ca1565b61048e565b60405161016f9190611d0f565b60405180910390f35b610192600480360381019061018d9190611d56565b6104d4565b005b6101ae60048036038101906101a99190611dfb565b6105eb565b005b6101ca60048036038101906101c59190611e6f565b6106db565b005b6101e660048036038101906101e19190611e6f565b61073b565b005b61020260048036038101906101fd9190611ca1565b61075b565b60405161020f9190611d0f565b60405180910390f35b610232600480360381019061022d9190611ec2565b61080c565b60405161023f9190611efe565b60405180910390f35b6102506108c3565b60405161025d9190611c49565b60405180910390f35b610280600480360381019061027b9190611f45565b610955565b005b61029c600480360381019061029791906120b5565b61096b565b005b6102b860048036038101906102b39190612138565b6109cd565b005b6102d460048036038101906102cf9190611ca1565b610c29565b6040516102e19190611c49565b60405180910390f35b61030460048036038101906102ff9190612178565b610d3b565b6040516103119190611b9e565b60405180910390f35b60007f80ac58cd000000000000000000000000000000000000000000000000000000007bffffffffffffffffffffffffffffffffffffffffffffffffffffffff1916827bffffffffffffffffffffffffffffffffffffffffffffffffffffffff191614806103e557507f5b5e139f000000000000000000000000000000000000000000000000000000007bffffffffffffffffffffffffffffffffffffffffffffffffffffffff1916827bffffffffffffffffffffffffffffffffffffffffffffffffffffffff1916145b806103f557506103f482610dcf565b5b9050919050565b60606000805461040b906121e7565b80601f0160208091040260200160405190810160405280929190818152602001828054610437906121e7565b80156104845780601f1061045957610100808354040283529160200191610484565b820191906000526020600020905b81548152906001019060200180831161046757829003601f168201915b5050505050905090565b600061049982610e39565b6004600083815260200190815260200160002060009054906101000a900473ffffffffffffffffffffffffffffffffffffffff169050919050565b60006104df8261075b565b90508073ffffffffffffffffffffffffffffffffffffffff168373ffffffffffffffffffffffffffffffffffffffff160361054f576040517f08c379a00000000000000000000000000000000000000000000000000000000081526004016105469061228a565b60405180910390fd5b8073ffffffffffffffffffffffffffffffffffffffff1661056e610e84565b73ffffffffffffffffffffffffffffffffffffffff16148061059d575061059c81610597610e84565b610d3b565b5b6105dc576040517f08c379a00000000000000000000000000000000000000000000000000000000081526004016105d39061231c565b60405180910390fd5b6105e68383610e8c565b505050565b6105f56007610f45565b60006106016007610f5b565b905081600a6000838152602001908152602001600020819055508183610627919061239a565b600b60008381526020019081526020016000208190555061064f610649610e84565b82610f69565b61069d8186868080601f016020809104026020016040519081016040528093929190818152602001838380828437600081840152601f19601f82011690508083019250505050505050610f87565b7f525b81a3c2e838d5986bd42a1f7e8f6369c9279afba551b8028eaf8390839e72816040516106cc9190611efe565b60405180910390a15050505050565b6106ec6106e6610e84565b82610ff4565b61072b576040517f08c379a00000000000000000000000000000000000000000000000000000000081526004016107229061243d565b60405180910390fd5b610736838383611089565b505050565b6107568383836040518060200160405280600081525061096b565b505050565b6000806002600084815260200190815260200160002060009054906101000a900473ffffffffffffffffffffffffffffffffffffffff169050600073ffffffffffffffffffffffffffffffffffffffff168173ffffffffffffffffffffffffffffffffffffffff1603610803576040517f08c379a00000000000000000000000000000000000000000000000000000000081526004016107fa906124a9565b60405180910390fd5b80915050919050565b60008073ffffffffffffffffffffffffffffffffffffffff168273ffffffffffffffffffffffffffffffffffffffff160361087c576040517f08c379a00000000000000000000000000000000000000000000000000000000081526004016108739061253b565b60405180910390fd5b600360008373ffffffffffffffffffffffffffffffffffffffff1673ffffffffffffffffffffffffffffffffffffffff168152602001908152602001600020549050919050565b6060600180546108d2906121e7565b80601f01602080910402602001604051908101604052809291908181526020018280546108fe906121e7565b801561094b5780601f106109205761010080835404028352916020019161094b565b820191906000526020600020905b81548152906001019060200180831161092e57829003601f168201915b5050505050905090565b610967610960610e84565b83836112ef565b5050565b61097c610976610e84565b83610ff4565b6109bb576040517f08c379a00000000000000000000000000000000000000000000000000000000081526004016109b29061243d565b60405180910390fd5b6109c78484848461145b565b50505050565b6109d76007610f5b565b8210610a18576040517f08c379a0000000000000000000000000000000000000000000000000000000008152600401610a0f906125a7565b60405180910390fd5b80600a6000848152602001908152602001600020541015610a6e576040517f08c379a0000000000000000000000000000000000000000000000000000000008152600401610a6590612613565b60405180910390fd5b6000600b60008481526020019081526020016000205482610a8f9190612633565b905081600a60008581526020019081526020016000206000828254610ab49190612675565b9250508190555081600c600085815260200190815260200160002060003373ffffffffffffffffffffffffffffffffffffffff1673ffffffffffffffffffffffffffffffffffffffff1681526020019081526020016000206000828254610b1b91906126a9565b92505081905550600860009054906101000a900473ffffffffffffffffffffffffffffffffffffffff1673ffffffffffffffffffffffffffffffffffffffff166323b872dd33600960009054906101000a900473ffffffffffffffffffffffffffffffffffffffff16846040518463ffffffff1660e01b8152600401610ba3939291906126dd565b6020604051808303816000875af1158015610bc2573d6000803e3d6000fd5b505050506040513d601f19601f82011682018060405250810190610be69190612729565b507f0831583cced7554a81e1cd091e811afaadc7d575a17fbd354716145bb597efc983338385604051610c1c9493929190612756565b60405180910390a1505050565b6060610c3482610e39565b6000600660008481526020019081526020016000208054610c54906121e7565b80601f0160208091040260200160405190810160405280929190818152602001828054610c80906121e7565b8015610ccd5780601f10610ca257610100808354040283529160200191610ccd565b820191906000526020600020905b815481529060010190602001808311610cb057829003601f168201915b505050505090506000610cde6114b7565b90506000815103610cf3578192505050610d36565b600082511115610d28578082604051602001610d109291906127d7565b60405160208183030381529060405292505050610d36565b610d31846114ce565b925050505b919050565b6000600560008473ffffffffffffffffffffffffffffffffffffffff1673ffffffffffffffffffffffffffffffffffffffff16815260200190815260200160002060008373ffffffffffffffffffffffffffffffffffffffff1673ffffffffffffffffffffffffffffffffffffffff16815260200190815260200160002060009054906101000a900460ff16905092915050565b60007f01ffc9a7000000000000000000000000000000000000000000000000000000007bffffffffffffffffffffffffffffffffffffffffffffffffffffffff1916827bffffffffffffffffffffffffffffffffffffffffffffffffffffffff1916149050919050565b610e4281611536565b610e81576040517f08c379a0000000000000000000000000000000000000000000000000000000008152600401610e78906124a9565b60405180910390fd5b50565b600033905090565b816004600083815260200190815260200160002060006101000a81548173ffffffffffffffffffffffffffffffffffffffff021916908373ffffffffffffffffffffffffffffffffffffffff160217905550808273ffffffffffffffffffffffffffffffffffffffff16610eff8361075b565b73ffffffffffffffffffffffffffffffffffffffff167f8c5be1e5ebec7d5bd14f71427d1e84f3dd0314c0f7b2291e5b200ac8c7c3b92560405160405180910390a45050565b6001816000016000828254019250508190555050565b600081600001549050919050565b610f838282604051806020016040528060008152506115a2565b5050565b610f9082611536565b610fcf576040517f08c379a0000000000000000000000000000000000000000000000000000000008152600401610fc69061286d565b60405180910390fd5b80600660008481526020019081526020016000209081610fef9190612a39565b505050565b6000806110008361075b565b90508073ffffffffffffffffffffffffffffffffffffffff168473ffffffffffffffffffffffffffffffffffffffff16148061104257506110418185610d3b565b5b8061108057508373ffffffffffffffffffffffffffffffffffffffff166110688461048e565b73ffffffffffffffffffffffffffffffffffffffff16145b91505092915050565b8273ffffffffffffffffffffffffffffffffffffffff166110a98261075b565b73ffffffffffffffffffffffffffffffffffffffff16146110ff576040517f08c379a00000000000000000000000000000000000000000000000000000000081526004016110f690612b7d565b60405180910390fd5b600073ffffffffffffffffffffffffffffffffffffffff168273ffffffffffffffffffffffffffffffffffffffff160361116e576040517f08c379a000000000000000000000000000000000000000000000000000000000815260040161116590612c0f565b60405180910390fd5b6111798383836115fd565b611184600082610e8c565b6001600360008573ffffffffffffffffffffffffffffffffffffffff1673ffffffffffffffffffffffffffffffffffffffff16815260200190815260200160002060008282546111d49190612675565b925050819055506001600360008473ffffffffffffffffffffffffffffffffffffffff1673ffffffffffffffffffffffffffffffffffffffff168152602001908152602001600020600082825461122b91906126a9565b92505081905550816002600083815260200190815260200160002060006101000a81548173ffffffffffffffffffffffffffffffffffffffff021916908373ffffffffffffffffffffffffffffffffffffffff160217905550808273ffffffffffffffffffffffffffffffffffffffff168473ffffffffffffffffffffffffffffffffffffffff167fddf252ad1be2c89b69c2b068fc378daa952ba7f163c4a11628f55a4df523b3ef60405160405180910390a46112ea838383611602565b505050565b8173ffffffffffffffffffffffffffffffffffffffff168373ffffffffffffffffffffffffffffffffffffffff160361135d576040517f08c379a000000000000000000000000000000000000000000000000000000000815260040161135490612c7b565b60405180910390fd5b80600560008573ffffffffffffffffffffffffffffffffffffffff1673ffffffffffffffffffffffffffffffffffffffff16815260200190815260200160002060008473ffffffffffffffffffffffffffffffffffffffff1673ffffffffffffffffffffffffffffffffffffffff16815260200190815260200160002060006101000a81548160ff0219169083151502179055508173ffffffffffffffffffffffffffffffffffffffff168373ffffffffffffffffffffffffffffffffffffffff167f17307eab39ab6107e8899845ad3d59bd9653f200f220920489ca2b5937696c318360405161144e9190611b9e565b60405180910390a3505050565b611466848484611089565b61147284848484611607565b6114b1576040517f08c379a00000000000000000000000000000000000000000000000000000000081526004016114a890612d0d565b60405180910390fd5b50505050565b606060405180602001604052806000815250905090565b60606114d982610e39565b60006114e36114b7565b90506000815111611503576040518060200160405280600081525061152e565b8061150d8461178e565b60405160200161151e9291906127d7565b6040516020818303038152906040525b915050919050565b60008073ffffffffffffffffffffffffffffffffffffffff166002600084815260200190815260200160002060009054906101000a900473ffffffffffffffffffffffffffffffffffffffff1673ffffffffffffffffffffffffffffffffffffffff1614159050919050565b6115ac83836118ee565b6115b96000848484611607565b6115f8576040517f08c379a00000000000000000000000000000000000000000000000000000000081526004016115ef90612d0d565b60405180910390fd5b505050565b505050565b505050565b60006116288473ffffffffffffffffffffffffffffffffffffffff16611ac7565b15611781578373ffffffffffffffffffffffffffffffffffffffff1663150b7a02611651610e84565b8786866040518563ffffffff1660e01b81526004016116739493929190612d82565b6020604051808303816000875af19250505080156116af57506040513d601f19601f820116820180604052508101906116ac9190612de3565b60015b611731573d80600081146116df576040519150601f19603f3d011682016040523d82523d6000602084013e6116e4565b606091505b506000815103611729576040517f08c379a000000000000000000000000000000000000000000000000000000000815260040161172090612d0d565b60405180910390fd5b805181602001fd5b63150b7a0260e01b7bffffffffffffffffffffffffffffffffffffffffffffffffffffffff1916817bffffffffffffffffffffffffffffffffffffffffffffffffffffffff191614915050611786565b600190505b949350505050565b6060600082036117d5576040518060400160405280600181526020017f300000000000000000000000000000000000000000000000000000000000000081525090506118e9565b600082905060005b600082146118075780806117f090612e10565b915050600a82611800919061239a565b91506117dd565b60008167ffffffffffffffff81111561182357611822611f8a565b5b6040519080825280601f01601f1916602001820160405280156118555781602001600182028036833780820191505090505b5090505b600085146118e25760018261186e9190612675565b9150600a8561187d9190612e58565b603061188991906126a9565b60f81b81838151811061189f5761189e612e89565b5b60200101907effffffffffffffffffffffffffffffffffffffffffffffffffffffffffffff1916908160001a905350600a856118db919061239a565b9450611859565b8093505050505b919050565b600073ffffffffffffffffffffffffffffffffffffffff168273ffffffffffffffffffffffffffffffffffffffff160361195d576040517f08c379a000000000000000000000000000000000000000000000000000000000815260040161195490612f04565b60405180910390fd5b61196681611536565b156119a6576040517f08c379a000000000000000000000000000000000000000000000000000000000815260040161199d90612f70565b60405180910390fd5b6119b2600083836115fd565b6001600360008473ffffffffffffffffffffffffffffffffffffffff1673ffffffffffffffffffffffffffffffffffffffff1681526020019081526020016000206000828254611a0291906126a9565b92505081905550816002600083815260200190815260200160002060006101000a81548173ffffffffffffffffffffffffffffffffffffffff021916908373ffffffffffffffffffffffffffffffffffffffff160217905550808273ffffffffffffffffffffffffffffffffffffffff16600073ffffffffffffffffffffffffffffffffffffffff167fddf252ad1be2c89b69c2b068fc378daa952ba7f163c4a11628f55a4df523b3ef60405160405180910390a4611ac360008383611602565b5050565b6000808273ffffffffffffffffffffffffffffffffffffffff163b119050919050565b6000604051905090565b600080fd5b600080fd5b60007fffffffff0000000000000000000000000000000000000000000000000000000082169050919050565b611b3381611afe565b8114611b3e57600080fd5b50565b600081359050611b5081611b2a565b92915050565b600060208284031215611b6c57611b6b611af4565b5b6000611b7a84828501611b41565b91505092915050565b60008115159050919050565b611b9881611b83565b82525050565b6000602082019050611bb36000830184611b8f565b92915050565b600081519050919050565b600082825260208201905092915050565b60005b83811015611bf3578082015181840152602081019050611bd8565b60008484015250505050565b6000601f19601f8301169050919050565b6000611c1b82611bb9565b611c258185611bc4565b9350611c35818560208601611bd5565b611c3e81611bff565b840191505092915050565b60006020820190508181036000830152611c638184611c10565b905092915050565b6000819050919050565b611c7e81611c6b565b8114611c8957600080fd5b50565b600081359050611c9b81611c75565b92915050565b600060208284031215611cb757611cb6611af4565b5b6000611cc584828501611c8c565b91505092915050565b600073ffffffffffffffffffffffffffffffffffffffff82169050919050565b6000611cf982611cce565b9050919050565b611d0981611cee565b82525050565b6000602082019050611d246000830184611d00565b92915050565b611d3381611cee565b8114611d3e57600080fd5b50565b600081359050611d5081611d2a565b92915050565b60008060408385031215611d6d57611d6c611af4565b5b6000611d7b85828601611d41565b9250506020611d8c85828601611c8c565b9150509250929050565b600080fd5b600080fd5b600080fd5b60008083601f840112611dbb57611dba611d96565b5b8235905067ffffffffffffffff811115611dd857611dd7611d9b565b5b602083019150836001820283011115611df457611df3611da0565b5b9250929050565b60008060008060608587031215611e1557611e14611af4565b5b600085013567ffffffffffffffff811115611e3357611e32611af9565b5b611e3f87828801611da5565b94509450506020611e5287828801611c8c565b9250506040611e6387828801611c8c565b91505092959194509250565b600080600060608486031215611e8857611e87611af4565b5b6000611e9686828701611d41565b9350506020611ea786828701611d41565b9250506040611eb886828701611c8c565b9150509250925092565b600060208284031215611ed857611ed7611af4565b5b6000611ee684828501611d41565b91505092915050565b611ef881611c6b565b82525050565b6000602082019050611f136000830184611eef565b92915050565b611f2281611b83565b8114611f2d57600080fd5b50565b600081359050611f3f81611f19565b92915050565b60008060408385031215611f5c57611f5b611af4565b5b6000611f6a85828601611d41565b9250506020611f7b85828601611f30565b9150509250929050565b600080fd5b7f4e487b7100000000000000000000000000000000000000000000000000000000600052604160045260246000fd5b611fc282611bff565b810181811067ffffffffffffffff82111715611fe157611fe0611f8a565b5b80604052505050565b6000611ff4611aea565b90506120008282611fb9565b919050565b600067ffffffffffffffff8211156120205761201f611f8a565b5b61202982611bff565b9050602081019050919050565b82818337600083830152505050565b600061205861205384612005565b611fea565b90508281526020810184848401111561207457612073611f85565b5b61207f848285612036565b509392505050565b600082601f83011261209c5761209b611d96565b5b81356120ac848260208601612045565b91505092915050565b600080600080608085870312156120cf576120ce611af4565b5b60006120dd87828801611d41565b94505060206120ee87828801611d41565b93505060406120ff87828801611c8c565b925050606085013567ffffffffffffffff8111156121205761211f611af9565b5b61212c87828801612087565b91505092959194509250565b6000806040838503121561214f5761214e611af4565b5b600061215d85828601611c8c565b925050602061216e85828601611c8c565b9150509250929050565b6000806040838503121561218f5761218e611af4565b5b600061219d85828601611d41565b92505060206121ae85828601611d41565b9150509250929050565b7f4e487b7100000000000000000000000000000000000000000000000000000000600052602260045260246000fd5b600060028204905060018216806121ff57607f821691505b602082108103612212576122116121b8565b5b50919050565b7f4552433732313a20617070726f76616c20746f2063757272656e74206f776e6560008201527f7200000000000000000000000000000000000000000000000000000000000000602082015250565b6000612274602183611bc4565b915061227f82612218565b604082019050919050565b600060208201905081810360008301526122a381612267565b9050919050565b7f4552433732313a20617070726f76652063616c6c6572206973206e6f7420746f60008201527f6b656e206f776e6572206e6f7220617070726f76656420666f7220616c6c0000602082015250565b6000612306603e83611bc4565b9150612311826122aa565b604082019050919050565b60006020820190508181036000830152612335816122f9565b9050919050565b7f4e487b7100000000000000000000000000000000000000000000000000000000600052601260045260246000fd5b7f4e487b7100000000000000000000000000000000000000000000000000000000600052601160045260246000fd5b60006123a582611c6b565b91506123b083611c6b565b9250826123c0576123bf61233c565b5b828204905092915050565b7f4552433732313a2063616c6c6572206973206e6f7420746f6b656e206f776e6560008201527f72206e6f7220617070726f766564000000000000000000000000000000000000602082015250565b6000612427602e83611bc4565b9150612432826123cb565b604082019050919050565b600060208201905081810360008301526124568161241a565b9050919050565b7f4552433732313a20696e76616c696420746f6b656e2049440000000000000000600082015250565b6000612493601883611bc4565b915061249e8261245d565b602082019050919050565b600060208201905081810360008301526124c281612486565b9050919050565b7f4552433732313a2061646472657373207a65726f206973206e6f74206120766160008201527f6c6964206f776e65720000000000000000000000000000000000000000000000602082015250565b6000612525602983611bc4565b9150612530826124c9565b604082019050919050565b6000602082019050818103600083015261255481612518565b9050919050565b7f696e76616c696420746f6b656e49640000000000000000000000000000000000600082015250565b6000612591600f83611bc4565b915061259c8261255b565b602082019050919050565b600060208201905081810360008301526125c081612584565b9050919050565b7f73686172657320736f6c64206f75740000000000000000000000000000000000600082015250565b60006125fd600f83611bc4565b9150612608826125c7565b602082019050919050565b6000602082019050818103600083015261262c816125f0565b9050919050565b600061263e82611c6b565b915061264983611c6b565b925082820261265781611c6b565b9150828204841483151761266e5761266d61236b565b5b5092915050565b600061268082611c6b565b915061268b83611c6b565b92508282039050818111156126a3576126a261236b565b5b92915050565b60006126b482611c6b565b91506126bf83611c6b565b92508282019050808211156126d7576126d661236b565b5b92915050565b60006060820190506126f26000830186611d00565b6126ff6020830185611d00565b61270c6040830184611eef565b949350505050565b60008151905061272381611f19565b92915050565b60006020828403121561273f5761273e611af4565b5b600061274d84828501612714565b91505092915050565b600060808201905061276b6000830187611eef565b6127786020830186611d00565b6127856040830185611eef565b6127926060830184611eef565b95945050505050565b600081905092915050565b60006127b182611bb9565b6127bb818561279b565b93506127cb818560208601611bd5565b80840191505092915050565b60006127e382856127a6565b91506127ef82846127a6565b91508190509392505050565b7f45524337323155524953746f726167653a2055524920736574206f66206e6f6e60008201527f6578697374656e7420746f6b656e000000000000000000000000000000000000602082015250565b6000612857602e83611bc4565b9150612862826127fb565b604082019050919050565b600060208201905081810360008301526128868161284a565b9050919050565b60008190508160005260206000209050919050565b60006020601f8301049050919050565b600082821b905092915050565b6000600883026128ef7fffffffffffffffffffffffffffffffffffffffffffffffffffffffffffffffff826128b2565b6128f986836128b2565b95508019841693508086168417925050509392505050565b6000819050919050565b600061293661293161292c84611c6b565b612911565b611c6b565b9050919050565b6000819050919050565b6129508361291b565b61296461295c8261293d565b8484546128bf565b825550505050565b600090565b61297961296c565b612984818484612947565b505050565b5b818110156129a85761299d600082612971565b60018101905061298a565b5050565b601f8211156129ed576129be8161288d565b6129c7846128a2565b810160208510156129d6578190505b6129ea6129e2856128a2565b830182612989565b50505b505050565b600082821c905092915050565b6000612a10600019846008026129f2565b1980831691505092915050565b6000612a2983836129ff565b9150826002028217905092915050565b612a4282611bb9565b67ffffffffffffffff811115612a5b57612a5a611f8a565b5b612a6582546121e7565b612a708282856129ac565b600060209050601f831160018114612aa35760008415612a91578287015190505b612a9b8582612a1d565b865550612b03565b601f198416612ab18661288d565b60005b82811015612ad957848901518255600182019150602085019450602081019050612ab4565b86831015612af65784890151612af2601f8916826129ff565b8355505b6001600288020188555050505b505050505050565b7f4552433732313a207472616e736665722066726f6d20696e636f72726563742060008201527f6f776e6572000000000000000000000000000000000000000000000000000000602082015250565b6000612b67602583611bc4565b9150612b7282612b0b565b604082019050919050565b60006020820190508181036000830152612b9681612b5a565b9050919050565b7f4552433732313a207472616e7366657220746f20746865207a65726f2061646460008201527f7265737300000000000000000000000000000000000000000000000000000000602082015250565b6000612bf9602483611bc4565b9150612c0482612b9d565b604082019050919050565b60006020820190508181036000830152612c2881612bec565b9050919050565b7f4552433732313a20617070726f766520746f2063616c6c657200000000000000600082015250565b6000612c65601983611bc4565b9150612c7082612c2f565b602082019050919050565b60006020820190508181036000830152612c9481612c58565b9050919050565b7f4552433732313a207472616e7366657220746f206e6f6e20455243373231526560008201527f63656976657220696d706c656d656e7465720000000000000000000000000000602082015250565b6000612cf7603283611bc4565b9150612d0282612c9b565b604082019050919050565b60006020820190508181036000830152612d2681612cea565b9050919050565b600081519050919050565b600082825260208201905092915050565b6000612d5482612d2d565b612d5e8185612d38565b9350612d6e818560208601611bd5565b612d7781611bff565b840191505092915050565b6000608082019050612d976000830187611d00565b612da46020830186611d00565b612db16040830185611eef565b8181036060830152612dc38184612d49565b905095945050505050565b600081519050612ddd81611b2a565b92915050565b600060208284031215612df957612df8611af4565b5b6000612e0784828501612dce565b91505092915050565b6000612e1b82611c6b565b91507fffffffffffffffffffffffffffffffffffffffffffffffffffffffffffffffff8203612e4d57612e4c61236b565b5b600182019050919050565b6000612e6382611c6b565b9150612e6e83611c6b565b925082612e7e57612e7d61233c565b5b828206905092915050565b7f4e487b7100000000000000000000000000000000000000000000000000000000600052603260045260246000fd5b7f4552433732313a206d696e7420746f20746865207a65726f2061646472657373600082015250565b6000612eee602083611bc4565b9150612ef982612eb8565b602082019050919050565b60006020820190508181036000830152612f1d81612ee1565b9050919050565b7f4552433732313a20746f6b656e20616c7265616479206d696e74656400000000600082015250565b6000612f5a601c83611bc4565b9150612f6582612f24565b602082019050919050565b60006020820190508181036000830152612f8981612f4d565b905091905056fea2646970667358221220e18cd7150d251f638d29d4611fdcfd71e5320c8965fc8d989940edab8ddd979f64736f6c63430008110033608060405234801561001057600080fd5b506040516109c83803806109c883398181016040528101906100329190610130565b33600160006101000a81548173ffffffffffffffffffffffffffffffffffffffff021916908373ffffffffffffffffffffffffffffffffffffffff16021790555073d393b1e02da9831ff419e22ea105aae4c47e12536000806101000a81548173ffffffffffffffffffffffffffffffffffffffff021916908373ffffffffffffffffffffffffffffffffffffffff1602179055505061015d565b600080fd5b600073ffffffffffffffffffffffffffffffffffffffff82169050919050565b60006100fd826100d2565b9050919050565b61010d816100f2565b811461011857600080fd5b50565b60008151905061012a81610104565b92915050565b600060208284031215610146576101456100cd565b5b60006101548482850161011b565b91505092915050565b61085c8061016c6000396000f3fe608060405234801561001057600080fd5b506004361061002b5760003560e01c80633a6a4d2e14610030575b600080fd5b61003861003a565b005b6000600160009054906101000a900473ffffffffffffffffffffffffffffffffffffffff1673ffffffffffffffffffffffffffffffffffffffff16628885046040518163ffffffff1660e01b8152600401600060405180830381865afa1580156100a8573d6000803e3d6000fd5b505050506040513d6000823e3d601f19601f820116820180604052508101906100d1919061055d565b905060006103e8905060008060009054906101000a900473ffffffffffffffffffffffffffffffffffffffff1673ffffffffffffffffffffffffffffffffffffffff166370a08231306040518263ffffffff1660e01b815260040161013691906105b5565b602060405180830381865afa158015610153573d6000803e3d6000fd5b505050506040513d601f19601f820116820180604052508101906101779190610606565b90506000600560028361018a9190610662565b61019491906106d3565b905060005b845181101561038b57600073ffffffffffffffffffffffffffffffffffffffff168582815181106101cd576101cc610704565b5b602002602001015173ffffffffffffffffffffffffffffffffffffffff1614610378576000600160009054906101000a900473ffffffffffffffffffffffffffffffffffffffff1673ffffffffffffffffffffffffffffffffffffffff166370a0823187848151811061024357610242610704565b5b60200260200101516040518263ffffffff1660e01b815260040161026791906105b5565b602060405180830381865afa158015610284573d6000803e3d6000fd5b505050506040513d601f19601f820116820180604052508101906102a89190610606565b9050600083826102b891906106d3565b905060008054906101000a900473ffffffffffffffffffffffffffffffffffffffff1673ffffffffffffffffffffffffffffffffffffffff166323b872dd3089868151811061030a57610309610704565b5b6020026020010151846040518463ffffffff1660e01b815260040161033193929190610742565b6020604051808303816000875af1158015610350573d6000803e3d6000fd5b505050506040513d601f19601f8201168201806040525081019061037491906107b1565b5050505b8080610383906107de565b915050610199565b5050505050565b6000604051905090565b600080fd5b600080fd5b600080fd5b6000601f19601f8301169050919050565b7f4e487b7100000000000000000000000000000000000000000000000000000000600052604160045260246000fd5b6103f4826103ab565b810181811067ffffffffffffffff82111715610413576104126103bc565b5b80604052505050565b6000610426610392565b905061043282826103eb565b919050565b600067ffffffffffffffff821115610452576104516103bc565b5b602082029050602081019050919050565b600080fd5b600073ffffffffffffffffffffffffffffffffffffffff82169050919050565b600061049382610468565b9050919050565b6104a381610488565b81146104ae57600080fd5b50565b6000815190506104c08161049a565b92915050565b60006104d96104d484610437565b61041c565b905080838252602082019050602084028301858111156104fc576104fb610463565b5b835b81811015610525578061051188826104b1565b8452602084019350506020810190506104fe565b5050509392505050565b600082601f830112610544576105436103a6565b5b81516105548482602086016104c6565b91505092915050565b6000602082840312156105735761057261039c565b5b600082015167ffffffffffffffff811115610591576105906103a1565b5b61059d8482850161052f565b91505092915050565b6105af81610488565b82525050565b60006020820190506105ca60008301846105a6565b92915050565b6000819050919050565b6105e3816105d0565b81146105ee57600080fd5b50565b600081519050610600816105da565b92915050565b60006020828403121561061c5761061b61039c565b5b600061062a848285016105f1565b91505092915050565b7f4e487b7100000000000000000000000000000000000000000000000000000000600052601160045260246000fd5b600061066d826105d0565b9150610678836105d0565b9250828202610686816105d0565b9150828204841483151761069d5761069c610633565b5b5092915050565b7f4e487b7100000000000000000000000000000000000000000000000000000000600052601260045260246000fd5b60006106de826105d0565b91506106e9836105d0565b9250826106f9576106f86106a4565b5b828204905092915050565b7f4e487b7100000000000000000000000000000000000000000000000000000000600052603260045260246000fd5b61073c816105d0565b82525050565b600060608201905061075760008301866105a6565b61076460208301856105a6565b6107716040830184610733565b949350505050565b60008115159050919050565b61078e81610779565b811461079957600080fd5b50565b6000815190506107ab81610785565b92915050565b6000602082840312156107c7576107c661039c565b5b60006107d58482850161079c565b91505092915050565b60006107e9826105d0565b91507fffffffffffffffffffffffffffffffffffffffffffffffffffffffffffffffff820361081b5761081a610633565b5b60018201905091905056fea2646970667358221220ee23da1fee99853c6cac8640d8757cc241a2b5a0db6f43092d9533815e6599cd64736f6c63430008110033",
  "linkReferences": {},
  "deployedLinkReferences": {}
}